:02000000732B60
:10000800FF00030E8301D4000A08D3008A01700898
:10001800A3007108A2007208A1007308A0000B1DBC
:100028002F280B11643081004B08F0004C08F100B8
:100038004D08F2004E08F300F00A0319F10A0319FB
:10004800F20A0319F30A7008CB007108CC00720891
:10005800CD007308CE002308F0002208F100210823
:10006800F2002008F30053088A00540E8300FF0EA4
:040078007F0E0900EE
:10007C000E3083120313FD00FD0B42280000080014
:10008C00023083120313FC004930FD00FD0B4C2899
:0A009C00FC0B4C28000000000800D7
:1000A60083120313DC015808F1000130F0007108D7
:1000B60003196128F00D7010FF3E5B287008DB0005
:1000C6005708840070080005F10071080130031D0F
:1000D6000030F0005A08F006031989285908003C38
:1000E6000318792846204620D9037128570884002A
:1000F6005B080005F10071080130031D0030F000B7
:100106005A08F00603198928FF30DC005C08F00065
:020116000800DF
:10011800831203139F01C0309F044209F000700846
:1001280083169F051F179F1783125708F000F00DBD
:100138007010F00D7010F00D701070089F041F14EF
:100148003E201F151F1DAA280000A6281F101E08E4
:10015800F100F00183161E08F0040030F1040800D5
:0E0168008312031386140000000086100800A6
:10017600083083120313F4000030F5007508003CC4
:10018600031DC7287408003C0318E62801307402D2
:10019600F2000030031C013E7502F3007208F00005
:1001A600F00D70107008570784000018DC28061040
:1001B600DD28061406150000000006110130F402C1
:0801C600031CF503C128080029
:0E01CE008312031356088A00550882000800A9
:1001DC0083120313D7018C2070088312B6007108A8
:1001EC00B7000230FB000430FC00BA30FD00FD0B00
:1001FC00FD28FC0BFD28FB0BFD2800000130D7006F
:10020C008C2070088312C3007108C4000230FB00FC
:10021C000430FC00BA30FD00FD0B1229FC0B122936
:10022C00FB0B122900000230D7008C2070088312BF
:10023C00C5007108C6000230FB000430FC00BA3067
:10024C00FD00FD0B2729FC0B2729FB0B27290000A0
:10025C000330D7008C2070088312C9007108CA00C3
:10026C000230FB000430FC00BA30FD00FD0B3C29D1
:10027C00FC0B3C29FB0B3C2900000430D7008C20E4
:10028C0070088312C7007108C8000230FB000430EC
:10029C00FC00BA30FD00FD0B5129FC0B5129FB0B66
:1002AC00512900000530D7008C2070088312BE0045
:1002BC007108BF000230FB000430FC00BA30FD00B6
:1002CC00FD0B6629FC0B6629FB0B6629000006302A
:1002DC00D7008C2070088312BC007108BD0002305E
:1002EC00FB000430FC00BA30FD00FD0B7B29FC0B3D
:1002FC007B29FB0B7B2900000730D7008C20700872
:10030C008312C0007108C1000230FB000430FC00F5
:10031C00BA30FD00FD0B9029FC0B9029FB0B9029AA
:04032C0000000800C5
:08033000831203138815080075
:10033800063083120313D7000630D8000130D900E5
:10034800DA01532070080319AA29CF14CF1CD42925
:100358000630D7000630D8000130D9000130DA0065
:10036800532070080319D429CF10B80A0319B90A01
:100378003908003C031DC2293808103C0318C82955
:100388001030B8000030B90000303902031DCE2902
:100398000C3038020318D4290C30B8000030B900EA
:1003A8000630D7000730D8000130D900DA015320D1
:1003B80070080319E0294F154F1D0B2A0630D70086
:1003C8000730D8000130D9000130DA005320700816
:1003D80003190B2A4F110130B802031CB90339085D
:1003E800003C031DF9293808103C0318FF29103078
:1003F800B8000030B90000303902031D052A0C305E
:10040800380203180B2A0C30B8000030B900063047
:10041800D7000430D8000130D900DA015320700821
:100428000319172ACF15CF1D492A0630D7000430E3
:10043800D8000130D9000130DA00532070080319C0
:10044800492ACF1132303A07F1003B080318013E20
:10045800F2007108BA007208BB007208023C031D62
:10046800372A7108263C03183D2A2630BA00023084
:10047800BB0001303B02031D432AC2303A02031875
:10048800492AC230BA000130BB000630D700053017
:10049800D8000130D900DA01532070080319552A11
:1004A8004F144F1C882A0630D7000530D800013079
:1004B800D9000130DA00532070080319882A4F1038
:1004C80032303A02F1000030031C013E3B02F200D8
:1004D8007108BA007208BB007208023C031D762A34
:1004E8007108263C03187C2A2630BA000230BB006B
:1004F80001303B02031D822AC2303A020318882ABF
:10050800C230BA000130BB0024082504031D9C2A10
:100518000730D7000630D8000130D900DA0153205F
:10052800700803199C2A08160130A4000030A500A1
:10053800240825040319AE2A0730D7000730D8004D
:100548000130D900DA01532070080319AE2A0812C5
:10055800A401A501CA2A0130B0000030B100B201DF
:10056800B301B401B501E22AB001B1010130B20012
:100578000030B300B401B501E22AB001B101B20103
:10058800B3010130B4000030B500E22A3B08013A5B
:10059800031DD02AC2303A060319AF2A3B08013A94
:1005A800031DD82AF4303A060319B82A3B08023A40
:1005B800031DE02A26303A060319C12A242B0130EC
:1005C800A6000030A700A801A901AA01AB01AC014F
:1005D800AD01AE01AF014C2BA601A7010130A80067
:1005E8000030A900AA01AB01AC01AD01AE01AF0119
:1005F8004C2BA601A701A801A9010130AA000030CF
:10060800AB00AC01AD01AE01AF014C2BA601A701B7
:10061800A801A901AA01AB010130AC000030AD006E
:10062800AE01AF014C2BA601A701A801A901AA019F
:10063800AB01AC01AD010130AE000030AF004C2B76
:1006480000303906031D2A2B0C3038060319E32A1B
:1006580000303906031D322B0D3038060319F02AF5
:1006680000303906031D3A2B0E3038060319FD2ACF
:1006780000303906031D422B0F30380603190A2BA8
:1006880000303906031D4A2B103038060319172B82
:0A0698002630D700BB20B420080074
:1006A200FF3083120313D000FF30D100FF30D2009D
:1006B200FF309F01C0309F044209F000700883168A
:0C06C2009F051F179F1783121F140800CC
:1006CE00E7208A110A128000840AD50A0319D60A75
:0806DE00F003031D672B080067
:1006E600CE238030831603139F00FF3085008312CC
:1006F6008601F0308316860083128701FF30831649
:1007060087008312880183168801073089005123E8
:1007160051239821EE209C210230FB000430FC007E
:10072600BA30FD00FD0B952BFC0B952BFB0B952B87
:0607360000008D2B9D2B3D
:10079C00243084002B3083120313F000A330D500D7
:0807AC000330D60067230800AA
:040746000034003447
:10074A0001340034003400340034003400340034FE
:10075A0000340034013400340034003400340034EE
:04076A000034003423
:04076E000C34003413
:04077200C234013458
:040776000034003417
:04077A000034003413
:04077E00003400340F
:020782000F3432
:040784000034003409
:040788000034003405
:04078C000034003401
:0407900000340034FD
:0807940000340034003400348D
:02400E004A2F37
:00000001FF
