:02000000AC2B27
:10000800FF00030E8301ED000A08EC008A01700866
:10001800A7007108A6007208A5007308A400740858
:10002800A3007508A2007C08A1007D08A0000408B0
:10003800A8000B1D66280B116430810000303C02BB
:10004800031D302800303B02031D302800303A02DF
:10005800031D302832303902031C38283821422346
:10006800B901BA01BB01BC015408F0005508F10000
:100078005608F2005708F300F00A0319F10A0319A9
:10008800F20A0319F30A7008D4007108D50072083F
:10009800D6007308D7003908F0003A08F1003B0889
:1000A800F2003C08F300F00A0319F10A0319F20AF6
:1000B8000319F30A7008B9007108BA007208BB0086
:1000C8007308BC002708F0002608F1002508F20094
:1000D8002408F3002308F4002208F5002108FC0096
:1000E8002008FD00280884006C088A006D0E830033
:0600F800FF0E7F0E09005F
:1000FE00243083120313FD00FD0B8328000008003B
:10010E00043083120313FC003A30FD00FD0B8D28E2
:08011E00FC0B8D280000080015
:10012600831203139F01C0309F045309F000700827
:1001360083169F051F179F172408F000F00D7010F7
:10014600F00D7010F00D7010700883129F041F14CC
:100156007F201F151F1DB1280000AD281F101E0887
:10016600F100F00183161E08F0040030F1040800C7
:100176008312031386140000000000000000000034
:0401860086100800D7
:10018A00083083120313F4000030F5007508003CB0
:10019A00031DD1287408003C0318F62801307402A4
:1001AA00F2000030031C013E7502F3007208F000F1
:1001BA00F00D701070088316240784000018E828D0
:1001CA0083120610EA28831206140615000000009E
:1001DA0000000000000006110130F402031CF503C0
:0401EA00CB28080016
:1001EE0083160313A9012508F1000130F0007108F0
:1001FE0003190529F00D7010FF3EFF287008A800A6
:10020E002408840070080005F10071080130031DF8
:10021E000030F0002708F00603192E292608003CAE
:10022E0003181E29872087208316A6031529240864
:10023E00840028080005F10071080130031D00300C
:10024E00F0002708F00603192E29FF30A90029080F
:04025E00F0000800A4
:0E026200831203136F088A006E0882000800E2
:10027000063083160313A4000630A5000130A60043
:10028000A701F72070080319472983126814831205
:10029000681C742906308316A4000630A5000130BE
:1002A000A6000130A700F7207008031974298312F3
:1002B0006810C50A0319C60A4608003C031D6229D6
:1002C0004508103C031868291030C5000030C600EE
:1002D00000304602031D6E290C30450203187429B4
:1002E0000C30C5000030C60006308316A40007306D
:1002F000A5000130A600A701F72070080319822984
:100300008312E8148312E81CB02906308316A40077
:100310000730A5000130A6000130A700F7207008C3
:100320000319B0298312E8100130C502031CC6036B
:100330004608003C031D9E294508103C0318A429CB
:100340001030C5000030C60000304602031DAA2947
:100350000C3045020318B0290C30C5000030C6002F
:1003600006308316A4000430A5000130A600A701C2
:10037000F72070080319BE298312E8158312E81DBF
:10038000F32906308316A4000430A5000130A6002E
:100390000130A700F72070080319F3298312E81130
:1003A00032306407F10065080318013EF20071085D
:1003B000E4007208E5007208023C031DE12971089F
:1003C000263C0318E7292630E4000230E50001301E
:1003D0006502031DED29C23064020318F329C230FF
:1003E000E4000130E50006308316A4000530A500C6
:1003F0000130A600A701F72070080319012A831213
:1004000068158312681D372A06308316A40005304C
:10041000A5000130A6000130A700F72070080319DD
:10042000372A8312681132306402F1000030031C55
:10043000013E6502F2007108E4007208E5007208EE
:10044000023C031D252A7108263C03182B2A26305E
:10045000E4000230E50001306502031D312AC2309C
:1004600064020318372AC230E4000130E500831229
:1004700043084404031D4E2A07308316A4000630A7
:10048000A5000130A600A701F720700803194E2A25
:10049000831208160130C3000030C40083124308E1
:1004A00044040319632A07308316A4000730A5000B
:1004B0000130A600A701F72070080319632A8312F0
:1004C0000812C301C401802A83120130B300003036
:1004D000B400B501B601B701B801992AB301B4015E
:1004E0000130B5000030B600B701B801992AB30158
:1004F000B401B501B6010130B7000030B800992A47
:1005000083126508013A031D872AC2306406031965
:10051000642A6508013A031D8F2AF4306406031922
:100520006E2A6508023A031D972A263064060319CD
:10053000772ADB2A0130A9000030AA00AB01AC0108
:10054000AD01AE01AF01B001B101B201032BA901B0
:10055000AA010130AB000030AC00AD01AE01AF012B
:10056000B001B101B201032BA901AA01AB01AC0199
:100570000130AD000030AE00AF01B001B101B201F9
:10058000032BA901AA01AB01AC01AD01AE01013001
:10059000AF000030B000B101B201032BA901AA01E4
:1005A000AB01AC01AD01AE01AF01B0010130B10052
:1005B0000030B200032B00304606031DE12A0C3048
:1005C000450603199A2A00304606031DE92A0D3014
:1005D00045060319A72A00304606031DF12A0E30EE
:1005E00045060319B42A00304606031DF92A0F30C8
:1005F00045060319C12A00304606031D012B1030A1
:1006000045060319CE2A29308316A400C520BB2035
:020610000800E0
:1006120083160313220823040319162B8312881549
:10062200F430E6000130E7002B2B83128811F430FE
:10063200E6000130E70088150D30FB00AF30FC000A
:10064200B630FD00FD0B232BFC0B232BFB0B232BC6
:060652000000162B080059
:100658008430831603138100643083128100A03034
:040668008B000800FB
:10066C0031218A110A128000840AEE0A0319EF0A5A
:08067C00F003031D362B0800FA
:1006840083160313A401932070088312CB0071080E
:10069400CC0001308316A400932070088312DC0080
:1006A4007108DD0002308316A400932070088312C1
:1006B400DA007108DB0003308316A400932070086D
:1006C4008312BF007108C00004308316A400932075
:1006D40070088312BD007108BE0005308316A400A3
:1006E400932070088312CD007108CE000630831663
:1006F400A400932070088312C7007108C800073053
:100704008316A400932070088312C9007108CA00DC
:020714000800DB
:10071600831203135408F0005508F1005608F2003E
:060726005708F300080073
:10072C00FF3083120313E900FF30EA00FF30EB00C7
:10073C00FF309F01C0309F045309F00070088316EE
:0C074C009F051F179F1783121F14080041
:1007580078258030831603139F00FF3085008312AD
:100768008601F0308316860083128701FF308316D6
:100778008700831288018316880107308900962331
:100788002C2301308316A2000030A300092383160E
:10079800A001A10183124308440403192E2D8816D1
:1007A800081488148B237008C1007108C20040081F
:1007B800003C031DE12B3F08C83C031CED2B003017
:1007C8004406031DE92B01304306031DED2B0814D5
:1007D800DB2B081000304C02031DF42BC8304B02F1
:1007E800031C072C00305D02031DFC2BC8305C0283
:1007F800031C072C00305B02031D042CC8305A026E
:10080800031C072C0C2C8316A201A30109238812B0
:100818008B2341087002C1004208031C013E71028B
:10082800C2008B237008D8007108D90062086304DD
:100838000319282C00304406031D242C01304306DC
:10084800031D282C08171A2C081300306302031DF7
:100858002F2C143062020318362C8316A201A30130
:10086800092388128B2358087002D8005908031CE2
:10087800013E7102D9008B237008E0007108E10085
:1008880058084107F00042080318013E5907F100D3
:1008980070085E028316A0007108031C013E8312D3
:1008A8005F028316A1008B236008F8006108F90035
:1008B800FA01FB017008F4007108F5007208F600EF
:1008C8007308F7007808F4027908031C790FF50219
:1008D8007A08031C7A0FF6027B08031C7B0FF702C9
:1008E80000308316A11BFF30F00077087002031D4B
:1008F8008B2C0030A11BFF30F00076087002031D1E
:100908008B2C75082102031D8B2C74082002031CF4
:10091800972C003083124406031D942C01304306A3
:10092800031D972C572C831288108316A001A10150
:100938008B2360087002E0006108031C013E71020D
:10094800E10088128B237008D1007108D2008B2334
:100958005108F8005208F900FA01FB017008F40088
:100968007108F5007208F6007308F7007808F402B9
:100978007908031C790FF5027A08031C7A0FF6022E
:100988007B08031C7B0FF70200307702031DD62C6F
:1009980000307602031DD62C50087502031DD62C94
:1009A8004F0874020318EF2C00304406031DDE2C98
:1009B80001304306031DEF2C4E08003C031DE62CB6
:1009C8004D08C83C0318E92CEE2C8316A201A3019C
:1009D80009238812AB2C8B2351087002F4005208AB
:1009E800031C013E7102F5007408D1007508D2009D
:1009F80058084107F00042080318013E5907F10062
:100A08006008F00761080318013EF10774087007D1
:100A1800F30071080318013E7507F4007308831684
:100A2800A0007408A10083124F085E07F1005F0858
:100A38000318013E5007F20074087202031D262DA8
:100A48007308710203182D2D8316A201A30109232F
:100A58008812322D0810881088120813CB2B332DDA
:100AF000293084003F3083120313F0003930EE00B8
:080B00000530EF003623080068
:100A720001340034003400340034003400340034D3
:100A820000340034013400340034003400340034C3
:080A920000340034003400348C
:040A9A0000340034F0
:040A9E0000340034EC
:040AA20000340034E8
:040AA60000340034E4
:040AAA000C340034D4
:040AAE0000340034DC
:040AB20000340034D8
:040AB60000340034D4
:040ABA0000340034D0
:040ABE00C4340934FF
:040AC20000340034C8
:020AC6000F34EB
:080AC800003400340034003456
:040AD00000340034BA
:040AD40000340034B6
:040AD80000340034B2
:040ADC00C4340934E1
:040AE00000340034AA
:040AE40001340034A5
:040AE800C2340134DF
:040AEC00003400349E
:02400E004A2F37
:00000001FF
