:04000000D7EF02F044
:1000080000C018F001C017F00CC016F00DC015F0B4
:100018009EA004D01D4A1E2A817E9E90BECF1FF04E
:10002800000E206EBFCF21F0000E226E1EC01CF005
:100038001DC01BF0196A1A6A21C001F0006A00503D
:10004800192601501A22000E1B221C221F501926A5
:1000580020501A22000E1B221C22E80E1926030E1D
:100068001A22000E1B221C229EA42CD0010E23262D
:10007800000E242225222622817C19C000F01AC0F5
:1000880001F01BC002F01CC003F04CD900C004F002
:1000980001C005F002C006F003C007F0000E006EB4
:1000A800240E016E740E026E930E036EC2D954D9DB
:1000B80000C027F001C028F0CE6ACF6A1D6A1E6A08
:1000C8009E949E9018C000F017C001F016C00CF066
:0600D80015C00DF011003F
:1000DE000B820BAE79EF00F00368026801680068CE
:0800EE000A360232FF0E120077
:0E00F600026A016A006A086A036A000E1200BC
:100104000B840BAE8DEF00F0010E036E026A016AE0
:0A011400006A0A360232FF0E1200E4
:08011E000AAE029E000E120061
:100126000CB0D5EF00F00CA27BEF01F00E6A000ECA
:100136000264ECEF00F0F00E0214D8A4B7EF00F062
:10014600023A01380F0B02260138F00B016E003817
:100156000F0B01260038F00B006E08380F0B002637
:100166000838F00B086E0E84D89002BED0EF00F06F
:1001760008360036013602360E2A02BED0EF00F0EF
:1001860008360036013602360E2A02BED0EF00F0DF
:1001960008360036013602360E2A0E50036471EF19
:1001A60001F0035E0BBC08AE76EF01F0D880800E3E
:1001B60008640030000E002201220222D8A076EF49
:1001C60001F0023201320032034A7BEF01F076EF92
:1001D60001F001C002F000C001F008C000F0086A9A
:1001E600000E0E86026423EF01F0F00E0214D8A46E
:1001F6000BEF01F0023A01380F0B02260138F00B23
:10020600016E00380F0B01260038F00B006E0E84CD
:10021600D89002BED0EF00F00036013602360E2A24
:1002260002BED0EF00F00036013602360E2A02BEBC
:10023600D0EF00F00036013602360E2AD0EF00F07D
:1002460001C002F000C001F0006A000E0E960E8892
:10025600026450EF01F0F00E0214D8A43BEF01F057
:10026600023A01380F0B02260138F00B016E0E849C
:10027600D89002BED0EF00F0013602360E2A02BE3A
:10028600D0EF00F0013602360E2A02BED0EF00F0A3
:10029600013602360E2AD0EF00F001C002F0016AE4
:1002A600000E0E86026480EF01F0F00E0214D8A450
:1002B6005FEF01F0023A0E84D89002BED0EF00F054
:1002C60002360E2A02BED0EF00F002360E2A02BE19
:1002D600D0EF00F002360E2AD0EF00F0010E0C6EC1
:1002E6000EDF83EF01F0020E0C6E16DF83EF01F0D6
:1002F600040E0C6EF1DE83EF01F0080E0C6EF8DED4
:020306001200E3
:080308000B6A0B86FF0E1200C8
:100310000B800BAE94EF01F0026A0AAEFF0E026E84
:0C032000016E006E0A360232FF0E120061
:10032C000050086E0150006E0250016E0350026EB8
:10033C00036A0B6A0C6A9E0E036E0A6A020E0C6E3E
:04034C00ECDE1200D1
:100350000900F5CFE6FF0006FBE10106F9E1120016
:100360000B6A0C6A0A6A0350D8B4FAEF01F0028EE5
:100370008E0E035E03BEC2EF01F0D8B4C2EF01F0EF
:10038000FEEF01F0036C080E035CD8A0D9EF01F07A
:10039000036E013602C001F0026A080E035CD8A0A9
:1003A000D9EF01F00136016A0350D8A4D890E3EFE9
:1003B00001F00350D8B4E3EF01F0D89002320132DB
:1003C000032EDDEF01F00BBC01A0F0EF01F0D8A08F
:1003D000F0EF01F0012AD8B4022A02BE0DEF02F0BC
:1003E0000AAE12EF02F0021E011E012AD8B4022A40
:1003F00012EF02F0026A016A12EF02F00B800BAEFC
:1004000016EF02F0026A0AAE16EF02F0FF0E026E5D
:10041000016E0A36023216EF02F0010E0C6E78DF22
:1004200018EF02F0000E0C6E18EF02F0FF0E0C6ECB
:0A0430000150006E0250016E120030
:10043A000450000A12E10550000A0FE10650000AB2
:10044A000CE10750000A09E1FF0E006EFF0E016E73
:10045A007F0E026EFF0E036EA4D0086A096A075067
:10046A00D8B4C8EF02F00350D8B4CCEF02F002506F
:10047A0006180A6E028E068E0E6A02C008F001C0C5
:10048A000CF000C00DF004500D5E0550D8A0053CDC
:10049A000C5E0650D8A0063C085E086A0C6A0D6A13
:1004AA00D8A05FEF02F0D89002320132003208324F
:1004BA00010E0E6E0750035ED8A06CEF02F07E0E9E
:1004CA000E240326D8B0D0EF02F072EF02F07E0EAF
:1004DA000E240326D8A0D4EF02F0180E0B6E0D36A8
:1004EA000C3608360036013602360E360450005EE7
:1004FA000550D8A0053C015E0650D8A0063C025E15
:10050A0006340E120EA08DEF02F00D8098EF02F065
:10051A00045000260550D8B0053C01260650D8B034
:10052A00062802260D900B2E74EF02F0BEEF02F0A1
:10053A00D8900036013602360E360450005E055059
:10054A00D8A0053C015E0650D8A0063C025E0634DF
:10055A000E10010B0D26D8B00C2AD8B4082AD8A43C
:10056A00BEEF02F008320C320D32032AD8B4D0EFB3
:10057A0002F00AAE089E0850026E0C50016E0D5031
:10058A00006ED6EF02F0010EBADED6EF02F0020ECE
:10059A00ADDDD6EF02F0040E9DDDD6EF02F0080EB7
:0405AA00ACDD1200B2
:1005AE00196A1A6A1B6A1C6A0F01396B3A6B819EB3
:1005BE00819C2B6A2C6A296A2A6A236A246A256A14
:1005CE00266A276A286A0F0EC16E93969398939C9B
:1005DE00939E94848A888A96050EBD6ECD80F28E87
:1005EE00F28C9D849E949D8082A40FD0820E0C6E00
:1005FE00DD0E0D6E0D2EFED70C2EFCD7000000006A
:10060E0082A402D08A989E840ED08A88000E265C20
:10061E0008E1000E255C05E1000E245C02E10A0EE5
:0A062E00235CD8B08A86E0D7FFD71E
:020000040030CA
:0D000100231F3CFFBF81FF0FC00FE00F4029
:00000001FF
