:020000005C2D75
:10000600E83083120313F0000330F100F201F3012C
:020016000800E0
:10001800831203132230FC00F801F901FA01FB01F5
:10002800FC03031942280310FB0CFA0CF90CF80C1A
:10003800F30CF20CF10CF00C031C1428FC0303194C
:1000480034287408F80775080318750FF907760837
:100058000318760FFA0777080318770FFB07182895
:100068007408F80775080318750FF9077608031858
:0E007800760FFA0777080318770FFB070800CA
:0E008600293083120313FD00FD0B47280800EC
:1000940083120313F801F9011030FC00710DF80DFF
:1000A400F90D7408F8027508031C750FF90203189A
:1000B40062287408F80775080318750FF907031008
:0A00C400F00DF10DFC0B50280800B0
:1000CE0083120313CB03CB034B08003C0318742895
:1000DE00CB030000000000006B28000000000000B1
:0600EE0000000000080004
:1000F40083120313FB01FA01F901F801A001730D46
:10010400F80D7408F8027508031C750FF9027608D7
:10011400031C760FFA027708031C770FFB02000119
:10012400031C0130A002F30D0730FC00730DF80D21
:10013400F90DFA0DFB0DA00D7408731CB328F80219
:100144007508031C750FF9027608031C760FFA0272
:100154007708031C770FFB020001031C0130A00287
:10016400C428F80775080318750FF90776080318EB
:10017400760FFA0777080318770FFB0700010318B7
:100184000130A007F30DFC0B9828720DF80DF90D42
:10019400FA0DFB0DA00D7408731CE228F802750813
:1001A400031C750FF9027608031C760FFA02770810
:1001B400031C770FFB020001031C0130A002F3288B
:1001C400F80775080318750FF90776080318760FF2
:1001D400FA0777080318770FFB07000103180130AB
:1001E400A007F20D0730FC00720DF80DF90DFA0DA1
:1001F400FB0DA00D7408721C1129F8027508031C6C
:10020400750FF9027608031C760FFA027708031CAF
:10021400770FFB020001031C0130A0022229F8071A
:1002240075080318750FF90776080318760FFA078F
:1002340077080318770FFB07000103180130A007A4
:10024400F20DFC0BF628710DF80DF90DFA0DFB0DEE
:10025400A00D7408721C4029F8027508031C750F60
:10026400F9027608031C760FFA027708031C770F4D
:10027400FB020001031C0130A0025129F807750894
:100284000318750FF90776080318760FFA0777082D
:100294000318770FFB07000103180130A007F10DC5
:1002A4000730FC00710DF80DF90DFA0DFB0DA00DD2
:1002B4007408711C6F29F8027508031C750FF90284
:1002C4007608031C760FFA027708031C770FFB02EB
:1002D4000001031C0130A0028029F80775080318E7
:1002E400750FF90776080318760FFA0777080318CD
:1002F400770FFB07000103180130A007F10DFC0B79
:100304005429700DF80DF90DFA0DFB0DA00D7408AC
:10031400711C9E29F8027508031C750FF9027608F2
:10032400031C760FFA027708031C770FFB02000107
:10033400031C0130A002AF29F80775080318750FD4
:10034400F90776080318760FFA0777080318770F6A
:10035400FB07000103180130A007F00D0730FC0073
:10036400700DF80DF90DFA0DFB0DA00D7408701C3D
:10037400CD29F8027508031C750FF9027608031CD1
:10038400760FFA027708031C770FFB020001031CA7
:100394000130A002DE29F80775080318750FF90764
:1003A40076080318760FFA0777080318770FFB0708
:1003B400000103180130A007F00DFC0BB2297018DE
:1003C400F1297408F80775080318750FF9077608FA
:1003D4000318760FFA0777080318770FFB0708004E
:0A03E400831203138614861008002C
:1003EE000320E830F4000330F500F601F7010C208D
:1003FE007008C7007108C8007208C9007308CA00E7
:10040E003F08F4004008F500F601F7017A20700865
:10041E00C7007108C8007208C9007308CA007008C6
:10042E00F5007108F6007208F7007308F800F80C72
:10043E00F70CF60CF50CF813F80CF70CF60CF50C93
:10044E00F8137508F0007608F1007708F2007808C6
:10045E00F300F30CF20CF10CF00CF3137008C30064
:10046E007108C40003204108F4004208F500F601AB
:10047E00F7010C204308F9004408FA00FB01FC01C7
:10048E000330F8007908F4007A08F5007B08F600CE
:10049E007C08F700780803195B2AF40DF50DF60DAC
:1004AE00F70D7410FF3E522A7A207008C7007108AB
:1004BE00C8007208C9007308CA000A30F400003080
:1004CE00F5004308F0004408F1004A207008C3000C
:1004DE007108C40000307102031D772A03307002C8
:1004EE0003187A2AC72A3C0884004A08003C031DD8
:1004FE008A2A4908003C031D8A2A4808003C031D2D
:10050E008A2A4708003C0318C52A3B088004440881
:10051E000319A12AC501C60100304602031D992AFE
:10052E00440845020318A12ACB016720C50A031906
:10053E00C60A932A4308CB0067203A088005440870
:10054E000319B92AC501C60100304602031DB12A9E
:10055E00440845020318B92ACB016720C50A0319BE
:10056E00C60AAB2A4308CB0067200130C702031C22
:10057E00C802031CC902031CCA027C2A3A08800561
:02058E00080063
:0E0590008312031339088A003808820008001D
:10059E00083083120313F4000030F5007508003C98
:1005AE00031DDB2A7408003C0318F82A013074027C
:1005BE00F2000030031C013E7502F3007208F000D9
:1005CE00F00D701070083F0784000018F02A061016
:1005DE00F12A0614061506117208F4007308F500C8
:0405EE00D52A080002
:1005F20083120313C4014008F1000130F0007108B6
:100602000319072BF00D7010FF3E012B7008C30079
:100612003F08840070080005F10071080130031DD5
:100622000030F0004208F00603192F2B4108003C6D
:1006320003181F2B43204320C103172B3F088400BC
:1006420043080005F10071080130031D0030F0007D
:100652004208F00603192F2BFF30C4004408F000B3
:0206620008008E
:10066400831203138815F430BF000130C000F43046
:10067400C1000130C200F721E830BF000330C000E0
:0C068400F430C1000130C200F721080072
:10069000831203133D08BC003E08F1000130F00056
:1006A00071080319572BF00D7010FF3E512B700885
:1006B000BB00F0097008BA0080303D078400700864
:0A06C000800584137008800508000F
:1006CA00063083120313BF000630C0006430C10035
:1006DA00C201F92270080319732B3714371CA62B91
:1006EA000630BF000630C0006430C1000130C200CD
:1006FA00F92270080319A62B3710A10A0319A20AB6
:10070A002630BF000530C0003230C1000030C200C0
:10071A00F7212208003C031D942B2108103C0318E2
:10072A009A2B1030A1000030A20000302202031DD3
:10073A00A02B0C3021020318A62B0C30A10000308C
:10074A00A2000630BF000730C0006430C100C201F9
:10075A00F92270080319B22BB714B71CE62B06301E
:10076A00BF000730C0006430C1000130C200F92266
:10077A0070080319E62BB7102630BF000530C000F9
:10078A003230C1000030C200F7210130A102031C3F
:10079A00A2032208003C031DD42B2108103C031895
:1007AA00DA2B1030A1000030A20000302202031D13
:1007BA00E02B0C3021020318E62B0C30A10000308C
:1007CA00A2000630BF000430C0006430C100C2017C
:1007DA00F92270080319F22B3715371D2D2C063014
:1007EA00BF000430C0006430C1000130C200F922E9
:1007FA00700803192D2C3711E830BF000330C000F0
:10080A006430C1000030C200F72132303307F100F2
:10081A0034080318013EF2007108B3007208B400EC
:10082A007208023C031D1B2C7108263C0318212C5C
:10083A002630B3000230B40001303402031D272CE5
:10084A00C230330203182D2CC230B3000130B40079
:10085A000630BF000530C0006430C100C201F92271
:10086A0070080319392CB715B71D752C0630BF004F
:10087A000530C0006430C1000130C200F92270089E
:10088A000319752CB711E830BF000330C00064307B
:10089A00C1000030C200F72132303302F1000030CB
:1008AA00031C013E3402F2007108B3007208B4005E
:1008BA007208023C031D632C7108263C0318692C3C
:1008CA002630B3000230B40001303402031D6F2C0D
:1008DA00C23033020318752CC230B3000130B400A1
:1008EA0035083604031D922C0730BF000630C000BD
:1008FA006430C100C201F92270080319922CE83051
:10090A00BF000330C0006430C1000030C200F721CC
:10091A0008160130B5000030B60035083604031950
:10092A00AD2C0730BF000730C0006430C100C201DF
:10093A00F92270080319AD2CF430BF000130C00051
:10094A006430C1000030C200F7210812B501B601B7
:10095A00C92C0130AD000030AE00AF01B001B101C9
:10096A00B201E12CAD01AE010130AF000030B000A0
:10097A00B101B201E12CAD01AE01AF01B00101300C
:10098A00B1000030B200E12C3408013A031DCF2C2B
:10099A00C23033060319AE2C3408013A031DD72C92
:1009AA00F43033060319B72C3408023A031DDF2C3E
:1009BA00263033060319C02C232D0130A300003042
:1009CA00A400A501A601A701A801A901AA01AB01DA
:1009DA00AC014B2DA301A4010130A5000030A600F3
:1009EA00A701A801A901AA01AB01AC014B2DA301E2
:1009FA00A401A501A6010130A7000030A800A901A1
:100A0A00AA01AB01AC014B2DA301A401A501A601CA
:100A1A00A701A8010130A9000030AA00AB01AC016E
:100A2A004B2DA301A401A501A601A701A801A901B3
:100A3A00AA010130AB000030AC004B2D0030220679
:100A4A00031D292D0C3021060319E22C0030220641
:100A5A00031D312D0D3021060319EF2C003022061B
:100A6A00031D392D0E3021060319FC2C00302206F5
:100A7A00031D412D0F3021060319092D00302206CE
:100A8A00031D492D103021060319162D2330BF00EE
:060A9A00CF22F22108004A
:100AA000C8228A110A128000840AB80A0319B90AF6
:080AB000F003031D502D0800A6
:100AB8000C3083120313A100A2010130A300A4018A
:100AC800A501A601A701A801A901AA01AB01AC01D2
:100AD8000130AD00AE01AF01B001B101B201C230C9
:100AE800B3000130B400B501B6018601F0308316B9
:100AF800860083128701FF308316870083128801DE
:100B08008316880108308312BD000230BE004823D6
:100B180032236523350836040319922D8D2D932D24
:02400E004A2F37
:00000001FF
