:020000002C2BA7
:1000080070082000A1008031A50A2508123A031DB6
:10001800102801308E06A501273095000B11210804
:04002800F0000900DB
:10002C002000B303B3033308003C03182228B303A6
:10003C000000000000001928000000000000000073
:04004C0000000800A8
:100050002000F801F9011030FC00710DF80DF90DC8
:100060007408F8027508031C750FF90203183F287D
:100070007408F80775080318750FF9070310F00DD9
:08008000F10DFC0B2D28080016
:100088000230FC004930FD00FD0B4828FC0B4828D5
:060098000000000008005A
:10009E0020002230FC00F801F901FA01FB01FC03FB
:1000AE00031984280310FB0CFA0CF90CF80CF30C52
:1000BE00F20CF10CF00C031C5628FC0303197628E5
:1000CE007408F80775080318750FF90776080318F2
:1000DE00760FFA0777080318770FFB075A2874086C
:1000EE00F80775080318750FF90776080318760FC9
:0C00FE00FA0777080318770FFB070800CB
:0E010A004030F0001F30F100F201F301080058
:100118002000FB01FA01F901F801A001730DF80DA7
:100128007408F8027508031C750FF9027608031C99
:10013800760FFA027708031C770FFB020001031CF5
:100148000130A002F30D0730FC00730DF80DF90D16
:10015800FA0DFB0DA00D7408731CC428F80275086D
:10016800031C750FF9027608031C760FFA0277084C
:10017800031C770FFB020001031C0130A002D528E5
:10018800F80775080318750FF90776080318760F2E
:10019800FA0777080318770FFB07000103180130E7
:1001A800A007F30DFC0BA928720DF80DF90DFA0D37
:1001B800FB0DA00D7408731CF328F8027508031CC6
:1001C800750FF9027608031C760FFA027708031CEC
:1001D800770FFB020001031C0130A0020429F80775
:1001E80075080318750FF90776080318760FFA07CC
:1001F80077080318770FFB07000103180130A007E1
:10020800F20D0730FC00720DF80DF90DFA0DFB0D1B
:10021800A00D7408721C2229F8027508031C750FBA
:10022800F9027608031C760FFA027708031C770F89
:10023800FB020001031C0130A0023329F8077508EE
:100248000318750FF90776080318760FFA07770869
:100258000318770FFB07000103180130A007F20D00
:10026800FC0B0729710DF80DF90DFA0DFB0DA00D0A
:100278007408721C5129F8027508031C750FF902DD
:100288007608031C760FFA027708031C770FFB0227
:100298000001031C0130A0026229F8077508031841
:1002A800750FF90776080318760FFA077708031809
:1002B800770FFB07000103180130A007F10D073085
:1002C800FC00710DF80DF90DFA0DFB0DA00D740869
:1002D800711C8029F8027508031C750FF90276084D
:1002E800031C760FFA027708031C770FFB02000144
:1002F800031C0130A0029129F80775080318750F2F
:10030800F90776080318760FFA0777080318770FA6
:10031800FB07000103180130A007F10DFC0B65294C
:10032800700DF80DF90DFA0DFB0DA00D7408711C78
:10033800AF29F8027508031C750FF9027608031C2B
:10034800760FFA027708031C770FFB020001031CE3
:100358000130A002C029F80775080318750FF907BE
:1003680076080318760FFA0777080318770FFB0744
:10037800000103180130A007F00D0730FC00700DD4
:10038800F80DF90DFA0DFB0DA00D7408701CDE298F
:10039800F8027508031C750FF9027608031C760F1E
:1003A800FA027708031C770FFB020001031C0130D7
:1003B800A002EF29F80775080318750FF9077608E2
:1003C8000318760FFA0777080318770FFB07000161
:1003D80003180130A007F00DFC0BC3297018022A7E
:1003E8007408F80775080318750FF90776080318D5
:0E03F800760FFA0777080318770FFB07080047
:100406008520E830F4000330F500F601F7014F20AF
:100416007008AF007108B0007208B1007308B2002E
:100426002708F4002808F500F601F7018C2070086B
:10043600AF007108B0007208B1007308B20070080E
:10044600F5007108F6007208F7007308F800F83630
:10045600F70CF60CF50CF836F70CF60CF50C7508DF
:10046600F0007608F1007708F2007808F300F3361A
:10047600F20CF10CF00C7008AB007108AC00852092
:100486002908F4002A08F500F601F7014F202B0889
:10049600F9002C08FA00FB01FC010330F80079088A
:1004A600F4007A08F5007B08F6007C08F700780867
:1004B6000319632AF435F50DF60DF70DFF3E5B2A99
:1004C6008C207008AF007108B0007208B100730884
:1004D600B2000A30F4000030F5002B08F0002C08BA
:1004E600F10028207008AB007108AC0000307102E2
:1004F600031D7F2A033070020318822ACF2A22089E
:100506008400230885003208003C031D942A310824
:10051600003C031D942A3008003C031D942A2F0832
:10052600003C0318CD2A240880042C080319AB2AA2
:10053600AD01AE0100302E02031DA32A2C082D02A8
:100546000318AB2AB3011620AD0A0319AE0A9D2A79
:100556002B08B3001620260880052C080319C32A89
:10056600AD01AE0100302E02031DBB2A2C082D0260
:100576000318C32AB3011620AD0A0319AE0AB52A19
:100586002B08B30016200130AF020030B03BB13B60
:0A059600B23B862A26088005080003
:1005A0002000AD012908F1000130F00071080319A5
:1005B000DC2AF035FF3ED72A7008AC0027088400FB
:1005C0002808850070080005F10071080130031D3E
:1005D0000030F0002B08F0060319082B2A08003C15
:1005E0000318F62A44204420AA03EE2A2708840090
:1005F000280885002C080005F10071080130031D52
:100600000030F0002B08F0060319082BFF30AD0076
:060610002D08F0000800B7
:1006160020002708A2002808A3002908F1000130BD
:10062600F000710803191A2BF035FF3E152B7008E0
:10063600A400F0097008A600803027078400003067
:10064600283D85007008800580308402700880058A
:0206560008009A
:1006580007302200910021008E0120000E10A50114
:10066800073021009500273020009500A0308B002E
:100678000E30A7000030A8000230A9000B230D306F
:10068800A7000030A8000530A9006430AA00013096
:10069800AB00D022700803195A2B2630A70005306A
:1006A800A8003230A9000030AA000322432B5B2B9C
:020000040001F9
:04000E00E23F331684
:00000001FF
