:040000008A15002835
:10000800FF00030E8301CF000A08CE008A017008A2
:10001800A4007108A3007208A2007308A1000B1DB8
:100028002F280B11643081003908F0003A08F100DC
:100038003B08F2003C08F300F00A0319F10A03191F
:10004800F20A0319F30A7008B9007108BA007208B5
:10005800BB007308BC002408F0002308F100220844
:10006800F2002108F3004E088A004F0E8300FF0EAD
:040078007F0E0900EE
:10007C00203083120313F0004E30F100F201F30133
:02008C0008006A
:10008E00831203132230FC00F801F901FA01FB017F
:10009E00FC0303197D280310FB0CFA0CF90CF80C69
:1000AE00F30CF20CF10CF00C031C4F28FC0303199B
:1000BE006F287408F80775080318750FF907760886
:1000CE000318760FFA0777080318770FFB075328E4
:1000DE007408F80775080318750FF90776080318E2
:0E00EE00760FFA0777080318770FFB07080054
:1000FC00043083120313FC003A30FD00FD0B8428FE
:08010C00FC0B84280000080030
:1001140083120313F801F9011030FC00710DF80D7E
:10012400F90D7408F8027508031C750FF902031819
:10013400A2287408F80775080318750FF907031047
:0A014400F00DF10DFC0B90280800EF
:10014E0083120313E003E0036008003C0318B42895
:10015E00E003000000000000AB28000000000000DB
:06016E0000000000080083
:1001740083120313FB01FA01F901F801A001730DC5
:10018400F80D7408F8027508031C750FF902760857
:10019400031C760FFA027708031C770FFB02000199
:1001A400031C0130A002F30D0730FC00730DF80DA1
:1001B400F90DFA0DFB0DA00D7408731CF328F80259
:1001C4007508031C750FF9027608031C760FFA02F2
:1001D4007708031C770FFB020001031C0130A00207
:1001E4000429F80775080318750FF907760803182A
:1001F400760FFA0777080318770FFB070001031837
:100204000130A007F30DFC0BD828720DF80DF90D81
:10021400FA0DFB0DA00D7408731C2229F802750851
:10022400031C750FF9027608031C760FFA0277088F
:10023400031C770FFB020001031C0130A0023329C9
:10024400F80775080318750FF90776080318760F71
:10025400FA0777080318770FFB070001031801302A
:10026400A007F20D0730FC00720DF80DF90DFA0D20
:10027400FB0DA00D7408721C5129F8027508031CAB
:10028400750FF9027608031C760FFA027708031C2F
:10029400770FFB020001031C0130A0026229F8075A
:1002A40075080318750FF90776080318760FFA070F
:1002B40077080318770FFB07000103180130A00724
:1002C400F20DFC0B3629710DF80DF90DFA0DFB0D2D
:1002D400A00D7408721C8029F8027508031C750FA0
:1002E400F9027608031C760FFA027708031C770FCD
:1002F400FB020001031C0130A0029129F8077508D4
:100304000318750FF90776080318760FFA077708AC
:100314000318770FFB07000103180130A007F10D44
:100324000730FC00710DF80DF90DFA0DFB0DA00D51
:100334007408711CAF29F8027508031C750FF902C3
:100344007608031C760FFA027708031C770FFB026A
:100354000001031C0130A002C029F8077508031826
:10036400750FF90776080318760FFA07770803184C
:10037400770FFB07000103180130A007F10DFC0BF8
:100384009429700DF80DF90DFA0DFB0DA00D7408EC
:10039400711CDE29F8027508031C750FF902760832
:1003A400031C760FFA027708031C770FFB02000187
:1003B400031C0130A002EF29F80775080318750F14
:1003C400F90776080318760FFA0777080318770FEA
:1003D400FB07000103180130A007F00D0730FC00F3
:1003E400700DF80DF90DFA0DFB0DA00D7408701CBD
:1003F4000D2AF8027508031C750FF9027608031C10
:10040400760FFA027708031C770FFB020001031C26
:100414000130A0021E2AF80775080318750FF907A2
:1004240076080318760FFA0777080318770FFB0787
:10043400000103180130A007F00DFC0BF22970181D
:10044400312A7408F80775080318750FF907760838
:100454000318760FFA0777080318770FFB070800CD
:1004640083120313D9015508F1000130F00071081B
:100474000319402AF00D7010FF3E3A2A7008D80084
:100484005408840070080005F10071080130031D50
:100494000030F0005708F0060319682A5608003C9B
:1004A4000318582A7E207E20D603502A540884003C
:1004B40058080005F10071080130031D0030F000F8
:1004C4005708F0060319682AFF30D9005908F000CC
:0204D40008001E
:0E04D6008312031351088A00500882000800A8
:1004E400243083120313FD00FD0B762A000008005C
:1004F400083083120313F4000030F5007508003C43
:10050400031D862A7408003C0318A82A01307402CB
:10051400F2000030031C013E7502F3007208F00083
:10052400F00D701070085407840000189B2A061000
:100534009C2A0614061500000000000000000000BC
:0E05440006110130F402031CF503802A0800A2
:100552008312031386140000000000000000000054
:0405620086100800F7
:100566003E20E830F4000330F500F601F70147209D
:100576007008DC007108DD007208DE007308DF0019
:100586005408F4005508F500F601F701BA20700882
:10059600DC007108DD007208DE007308DF007008F9
:1005A600F5007108F6007208F7007308F800F80CF9
:1005B600F70CF60CF50CF813F80CF70CF60CF50C1A
:1005C600F8137508F0007608F1007708F20078084D
:1005D600F300F30CF20CF10CF00CF3137008D800D6
:1005E6007108D9003E205608F4005708F500F601B8
:1005F600F70147205808F9005908FA00FB01FC01E9
:100606000330F8007908F4007A08F5007B08F60054
:100616007C08F70078080319172BF40DF50DF60D75
:10062600F70D7410FF3E0E2BBA207008DC0071081F
:10063600DD007208DE007308DF000A30F4000030C7
:10064600F5005808F0005908F1008A207008D80013
:100656007108D90000307102031D332B033070027C
:100666000318362B832B470884005F08003C031DC4
:10067600462B5E08003C031D462B5D08003C031D0F
:10068600462B5C08003C0318812B49088004590856
:1006960003195D2BDA01DB0100305B02031D552BCC
:1006A60059085A0203185D2BE001A720DA0A03193C
:1006B600DB0A4F2B5808E000A72048088005590898
:1006C6000319752BDA01DB0100305B02031D6D2B6C
:1006D60059085A020318752BE001A720DA0A0319F4
:1006E600DB0A672B5808E000A7200130DC02031C58
:1006F600DD02031CDE02031CDF02382B48088005DE
:020706000800E9
:10070800831203139F01C0309F043F09F000700853
:1007180083169F051F179F1783125208F000F00DCC
:100728007010F00D7010F00D701070089F041F14F9
:1007380072221F151F1DA22B00009E2B1F101E08C2
:10074800F100F00183161E08F0040030F1040800DF
:10075800831203138815F430D4000130D500F43027
:10076800D6000130D700B322E830D4000330D500DA
:0C077800F430D6000130D700B322080096
:10078400063083120313D4000630D5000130D6009E
:10079400D701322270080319D02BC414C41CFA2BBD
:1007A4000630D4000630D5000130D6000130D70021
:1007B400322270080319FA2BC410BD0A0319BE0AA9
:1007C4003E08003C031DE82B3D08103C0318EE2BAB
:1007D4001030BD000030BE0000303E02031DF42B7B
:1007E4000C303D020318FA2B0C30BD000030BE0063
:1007F4000630D4000730D5000130D600D7013222AC
:1008040070080319062CC415C41D312C0630D400FD
:100814000730D5000130D6000130D70032227008ED
:100824000319312CC4110130BD02031CBE033E0860
:10083400003C031D1F2C3D08103C0318252C1030D0
:10084400BD000030BE0000303E02031D2B2C0C30D6
:100854003D020318312C0C30BD000030BE000630C0
:10086400D4000430D5000130D600D70132227008FC
:1008740003193D2C4415441D6F2C0630D40004305C
:10088400D5000130D6000130D70032227008031998
:100894006F2C441132302507F10026080318013E5D
:1008A400F2007108A5007208A6007208023C031D3C
:1008B4005D2C7108263C0318632C2630A5000230F9
:1008C400A60001302602031D692CC230250203183C
:1008D4006F2CC230A5000130A6000630D4000530CC
:1008E400D5000130D600D7013222700803197B2CC1
:1008F4004414441CAE2C0630D4000530D50001301D
:10090400D6000130D700322270080319AE2C4410EF
:1009140032302502F1000030031C013E2602F200B1
:100924007108A5007208A6007208023C031D9C2CE5
:100934007108263C0318A22C2630A5000230A6001C
:1009440001302602031DA82CC23025020318AE2C48
:10095400C230A5000130A60027082804031DC12CBD
:100964000730D4000630D5000130D600D70132223A
:1009740070080319C12C0130A7000030A800270813
:1009840028040319D22C0730D4000730D5000130D5
:10099400D600D701322270080319D22CA701A8016E
:1009A400EE2C0130B3000030B400B501B601B7013C
:1009B400B801062DB301B4010130B5000030B60012
:1009C400B701B801062DB301B401B501B601013078
:1009D400B7000030B800062D2608013A031DF42C98
:1009E400C23025060319D32C2608013A031DFC2C1A
:1009F400F43025060319DC2C2608023A031D042DC5
:100A0400263025060319E52C482D0130A9000030B5
:100A1400AA00AB01AC01AD01AE01AF01B001B1015F
:100A2400B201702DA901AA010130AB000030AC0065
:100A3400AD01AE01AF01B001B101B201702DA90148
:100A4400AA01AB01AC010130AD000030AE00AF0132
:100A5400B001B101B201702DA901AA01AB01AC0131
:100A6400AD01AE010130AF000030B000B101B20100
:100A7400702DA901AA01AB01AC01AD01AE01AF011A
:100A8400B0010130B1000030B200702D00303E06DC
:100A9400031D4E2D0C303D060319072D00303E0674
:100AA400031D562D0D303D060319142D00303E064E
:100AB400031D5E2D0E303D060319212D00303E0628
:100AC400031D662D0F303D0603192E2D00303E0602
:100AD400031D6E2D10303D0603193B2D2930D40023
:060AE4007A22A92208009D
:100AEA00831203133908F0003A08F1003B08F200B8
:060AFA003C08F3000800B7
:100B0000831203135208C7005308F1000130F000AC
:100B1000710803198F2DF00D7010FF3E892D70089C
:100B2000C900F0097008C8008030520784007008BE
:0A0B3000800584137008800508009A
:100B3A008430831603138100643083128100A0304D
:040B4A008B00080014
:100B4E006B228A110A128000840AD00A0319D10A74
:080B5E00F003031DA72D0800A0
:100BA400253084001F3083120313F000B330D000CB
:080BB4000530D100A72508005F
:101000008A11D2258A158030831603139F00FF3082
:10101000850083128601F0308316860081138312C7
:101020008701FF30831687008312880183168801A9
:101030008A119D258A150830D2000230D3008A110A
:1010400080258A158A11AC238A150330FB008A306B
:10105000FC005530FD00FD0B2B28FC0B2B28FB0B57
:101060002B2800000000081288110330FB008A3092
:10107000FC005530FD00FD0B3B28FC0B3B28FB0B17
:101080003B28000000008A1175258A157008CA00E7
:101090007108CB007208CC007308CD008A11C223FE
:1010A0008A1588160814C201C30141084302031DB2
:1010B0005B284008420203186C280130D2008A11D4
:1010C00084238A1570088312C5007108C6000814AD
:1010D000C20A0319C30A5528C201C30141084302C9
:1010E000031D74284008420203187B280814C20A12
:1010F0000319C30A6E28C201C30141084302031D3C
:10110000832840084202031894280130D2008A1133
:1011100084238A1570088312C5007108C60008145C
:10112000C20A0319C30A7D28C201C3014108430250
:10113000031D9C28400842020318AD280130D2004C
:101140008A1184238A1570088312C5007108C600AD
:101150000814C20A0319C30A9628C201C301410830
:101160004302031DB528400842020318C628013077
:10117000D2008A1184238A1570088312C500710871
:10118000C6000814C20A0319C30AAF28C201C3016A
:1011900041084302031DCE28400842020318DF28FD
:1011A0000130D2008A1184238A1570088312C50089
:1011B0007108C6000814C20A0319C30AC828C2016C
:1011C000C30141084302031DE728400842020318F7
:1011D000F8280130D2008A1184238A1570088312FE
:1011E000C5007108C6000814C20A0319C30AE12821
:1011F000C201C30141084302031D00294008420205
:10120000031811290130D2008A1184238A1570082D
:101210008312C5007108C6000814C20A0319C30A64
:10122000FA28C201C30141084302031D19294008DD
:10123000420203182A290130D2008A1184238A1518
:1012400070088312C5007108C6000814C20A031989
:10125000C30A1329C201C30141084302031D3229F5
:1012600040084202031843290130D2008A11842326
:101270008A1570088312C5007108C6000814C20AD6
:101280000319C30A2C29C201C30141084302031DEB
:101290004B294008420203185C290130D2008A1110
:1012A00084238A1570088312C5007108C6000814CB
:1012B000C20A0319C30A4529C201C30141084302F6
:1012C000031D642940084202031875290130D20029
:1012D0008A1184238A1570088312C5007108C6001C
:1012E0000814C20A0319C30A5E29C201C3014108D6
:1012F0004302031D7D294008420203188E29013054
:10130000D2008A1184238A1570088312C5007108DF
:10131000C6000814C20A0319C30A7729C201C3010F
:1013200041084302031D9629400842020318A729D9
:101330000130D2008A1184238A1570088312C500F7
:101340007108C6000814C20A0319C30A9029C20111
:10135000C30141084302031DAF294008420203189C
:10136000C0290130D2008A1184238A1570088312A3
:10137000C5007108C6000814C20A0319C30AA929C6
:10138000C201C30141084302031DC82940084202AB
:101390000318D9290130D2008A1184238A157008D4
:1013A0008312C5007108C6000814C20A0319C30AD3
:1013B000C229C201C30141084302031DE1294008BB
:1013C00042020318F2290130D2008A1184238A15BF
:1013D00070088312C5007108C6000814C20A0319F8
:1013E000C30ADB298A1175258A157008F400710873
:1013F000F5007208F6007308F7004A08F4024B087B
:10140000031C4B0FF5024C08031C4C0FF6024D0851
:10141000031C4D0FF70200307702031D192A00301C
:101420007602031D192A00307502031D192A643043
:101430007402031C292A881508128A1175258A1539
:101440007008CA007108CB007208CC007308CD0088
:10145000362A881108168A1175258A157008CA005F
:101460007108CB007208CC007308CD004E28372AD3
:040B6600C234013460
:040B6A00003400341F
:100B6E0001340034003400340034003400340034D6
:100B7E0000340034013400340034003400340034C6
:080B8E0000340034003400348F
:040B96000C340034E7
:020B9A000F3416
:040B9C006434003489
:040BA00000340034E9
:02400E004A2F37
:00000001FF
