:020000006B2D66
:10000600203083120313F0004E30F100F201F301A9
:020016000800E0
:10001800831203132230FC00F801F901FA01FB01F5
:10002800FC03031942280310FB0CFA0CF90CF80C1A
:10003800F30CF20CF10CF00C031C1428FC0303194C
:1000480034287408F80775080318750FF907760837
:100058000318760FFA0777080318770FFB07182895
:100068007408F80775080318750FF9077608031858
:0E007800760FFA0777080318770FFB070800CA
:10008600043083120313FC003A30FD00FD0B4928AF
:08009600FC0B492800000800E2
:10009E0083120313F801F9011030FC00710DF80DF5
:1000AE00F90D7408F8027508031C750FF902031890
:1000BE0067287408F80775080318750FF9070310F9
:0A00CE00F00DF10DFC0B55280800A1
:1000D80083120313CB03CB034B08003C0318792886
:1000E800CB030000000000007028000000000000A2
:0600F800000000000800FA
:1000FE0083120313FB01FA01F901F801A001730D3C
:10010E00F80D7408F8027508031C750FF9027608CD
:10011E00031C760FFA027708031C770FFB0200010F
:10012E00031C0130A002F30D0730FC00730DF80D17
:10013E00F90DFA0DFB0DA00D7408731CB828F8020A
:10014E007508031C750FF9027608031C760FFA0268
:10015E007708031C770FFB020001031C0130A0027D
:10016E00C928F80775080318750FF90776080318DC
:10017E00760FFA0777080318770FFB0700010318AD
:10018E000130A007F30DFC0B9D28720DF80DF90D33
:10019E00FA0DFB0DA00D7408731CE728F802750804
:1001AE00031C750FF9027608031C760FFA02770806
:1001BE00031C770FFB020001031C0130A002F8287C
:1001CE00F80775080318750FF90776080318760FE8
:1001DE00FA0777080318770FFB07000103180130A1
:1001EE00A007F20D0730FC00720DF80DF90DFA0D97
:1001FE00FB0DA00D7408721C1629F8027508031C5D
:10020E00750FF9027608031C760FFA027708031CA5
:10021E00770FFB020001031C0130A0022729F8070B
:10022E0075080318750FF90776080318760FFA0785
:10023E0077080318770FFB07000103180130A0079A
:10024E00F20DFC0BFB28710DF80DF90DFA0DFB0DDF
:10025E00A00D7408721C4529F8027508031C750F51
:10026E00F9027608031C760FFA027708031C770F43
:10027E00FB020001031C0130A0025629F807750885
:10028E000318750FF90776080318760FFA07770823
:10029E000318770FFB07000103180130A007F10DBB
:1002AE000730FC00710DF80DF90DFA0DFB0DA00DC8
:1002BE007408711C7429F8027508031C750FF90275
:1002CE007608031C760FFA027708031C770FFB02E1
:1002DE000001031C0130A0028529F80775080318D8
:1002EE00750FF90776080318760FFA0777080318C3
:1002FE00770FFB07000103180130A007F10DFC0B6F
:10030E005929700DF80DF90DFA0DFB0DA00D74089D
:10031E00711CA329F8027508031C750FF9027608E3
:10032E00031C760FFA027708031C770FFB020001FD
:10033E00031C0130A002B429F80775080318750FC5
:10034E00F90776080318760FFA0777080318770F60
:10035E00FB07000103180130A007F00D0730FC0069
:10036E00700DF80DF90DFA0DFB0DA00D7408701C33
:10037E00D229F8027508031C750FF9027608031CC2
:10038E00760FFA027708031C770FFB020001031C9D
:10039E000130A002E329F80775080318750FF90755
:1003AE0076080318760FFA0777080318770FFB07FE
:1003BE00000103180130A007F00DFC0BB7297018CF
:1003CE00F6297408F80775080318750FF9077608EB
:1003DE000318760FFA0777080318770FFB07080044
:1003EE0083120313861400000000000000000000BA
:0403FE00861008005D
:100402000320E830F4000330F500F601F7010C2078
:100412007008C7007108C8007208C9007308CA00D2
:100422003F08F4004008F500F601F7017F2070084C
:10043200C7007108C8007208C9007308CA007008B2
:10044200F5007108F6007208F7007308F800F80C5E
:10045200F70CF60CF50CF813F80CF70CF60CF50C7F
:10046200F8137508F0007608F1007708F2007808B2
:10047200F300F30CF20CF10CF00CF3137008C30050
:100482007108C40003204108F4004208F500F60197
:10049200F7010C204308F9004408FA00FB01FC01B3
:1004A2000330F8007908F4007A08F5007B08F600BA
:1004B2007C08F70078080319652AF40DF50DF60D8E
:1004C200F70D7410FF3E5C2A7F207008C700710888
:1004D200C8007208C9007308CA000A30F40000306C
:1004E200F5004308F0004408F1004F207008C300F3
:1004F2007108C40000307102031D812A03307002AA
:100502000318842AD12A3C0884004A08003C031DAF
:10051200942A4908003C031D942A4808003C031D04
:10052200942A4708003C0318CF2A3B088004440859
:100532000319AB2AC501C60100304602031DA32AD6
:10054200440845020318AB2ACB016C20C50A0319E3
:10055200C60A9D2A4308CB006C203A08800544084D
:100562000319C32AC501C60100304602031DBB2A76
:10057200440845020318C32ACB016C20C50A03199B
:10058200C60AB52A4308CB006C200130C702031CFF
:10059200C802031CC902031CCA02862A3A08800543
:0205A20008004F
:0E05A4008312031339088A0038088200080009
:1005B200083083120313F4000030F5007508003C84
:1005C200031DE52A7408003C0318072B013074024E
:1005D200F2000030031C013E7502F3007208F000C5
:1005E200F00D701070083F0784000018FA2A0610F8
:1005F200FB2A06140615000000000000000000009F
:0E06020006110130F402031CF503DF2A080084
:1006100083120313C4014008F1000130F000710897
:100620000319162BF00D7010FF3E102B7008C3003D
:100630003F08840070080005F10071080130031DB7
:100640000030F0004208F00603193E2B4108003C40
:1006500003182E2B43204320C103262B3F08840080
:1006600043080005F10071080130031D0030F0005F
:100670004208F00603193E2BFF30C4004408F00086
:02068000080070
:10068200831203138815F430BF000130C000F43028
:10069200C1000130C2000122E830BF000330C000B7
:0C06A200F430C1000130C2000122080049
:1006AE00831203133D08BC003E08F1000130F00038
:1006BE0071080319662BF00D7010FF3E602B700849
:1006CE00BB00F0097008BA0080303D078400700846
:0A06DE0080058413700880050800F1
:1006E800063083120313BF000630C0006430C10017
:1006F800C201082370080319822B3714371CB52B45
:100708000630BF000630C0006430C1000130C200AE
:10071800082370080319B52B3710A10A0319A20A78
:100728002630BF000530C0003230C1000030C200A2
:1007380001222208003C031DA32B2108103C0318AA
:10074800A92B1030A1000030A20000302202031DA6
:10075800AF2B0C3021020318B52B0C30A100003050
:10076800A2000630BF000730C0006430C100C201DB
:10077800082370080319C12BB714B71CF52B0630D2
:10078800BF000730C0006430C1000130C200082338
:1007980070080319F52BB7102630BF000530C000CC
:1007A8003230C1000030C20001220130A102031C16
:1007B800A2032208003C031DE32B2108103C031868
:1007C800E92B1030A1000030A20000302202031DE6
:1007D800EF2B0C3021020318F52B0C30A100003050
:1007E800A2000630BF000430C0006430C100C2015E
:1007F800082370080319012C3715371D3C2C0630C7
:10080800BF000430C0006430C1000130C2000823BA
:10081800700803193C2C3711E830BF000330C000C2
:100828006430C1000030C200012232303307F100C9
:1008380034080318013EF2007108B3007208B400CE
:100848007208023C031D2A2C7108263C0318302C20
:100858002630B3000230B40001303402031D362CB8
:10086800C230330203183C2CC230B3000130B4004C
:100878000630BF000530C0006430C100C201082343
:1008880070080319482CB715B71D842C0630BF0013
:100898000530C0006430C1000130C2000823700870
:1008A8000319842CB711E830BF000330C00064304E
:1008B800C1000030C200012232303302F1000030A2
:1008C800031C013E3402F2007108B3007208B40040
:1008D8007208023C031D722C7108263C0318782C00
:1008E8002630B3000230B40001303402031D7E2CE0
:1008F800C23033020318842CC230B3000130B40074
:1009080035083604031DA12C0730BF000630C0008F
:100918006430C100C201082370080319A12CE83013
:10092800BF000330C0006430C1000030C2000122A3
:1009380008160130B5000030B60035083604031932
:10094800BC2C0730BF000730C0006430C100C201B2
:10095800082370080319BC2CF430BF000130C00014
:100968006430C1000030C20001220812B501B6018E
:10097800D82C0130AD000030AE00AF01B001B1019C
:10098800B201F02CAD01AE010130AF000030B00073
:10099800B101B201F02CAD01AE01AF01B0010130DF
:1009A800B1000030B200F02C3408013A031DDE2CEF
:1009B800C23033060319BD2C3408013A031DE62C56
:1009C800F43033060319C62C3408023A031DEE2C02
:1009D800263033060319CF2C322D0130A300003006
:1009E800A400A501A601A701A801A901AA01AB01BC
:1009F800AC015A2DA301A4010130A5000030A600C6
:100A0800A701A801A901AA01AB01AC015A2DA301B4
:100A1800A401A501A6010130A7000030A800A90182
:100A2800AA01AB01AC015A2DA301A401A501A6019D
:100A3800A701A8010130A9000030AA00AB01AC0150
:100A48005A2DA301A401A501A601A701A801A90186
:100A5800AA010130AB000030AC005A2D003022064C
:100A6800031D382D0C3021060319F12C0030220605
:100A7800031D402D0D3021060319FE2C00302206DF
:100A8800031D482D0E30210603190B2D00302206B8
:100A9800031D502D0F3021060319182D0030220692
:100AA800031D582D103021060319252D2330BF00B2
:060AB800D922F72108001D
:100ABE00D2228A110A128000840AB80A0319B90ACE
:080ACE00F003031D5F2D080079
:100AD6000C3083120313A100A2010130A300A4016C
:100AE600A501A601A701A801A901AA01AB01AC01B4
:100AF6000130AD00AE01AF01B001B101B201C230AB
:100B0600B3000130B400B501B6018601F03083169A
:100B1600860083128701FF308316870083128801BF
:100B26008316880108308312BD000230BE005723A9
:100B360041237423350836040319A12D9C2DA22DBB
:02400E004A2F37
:00000001FF
