:02000000AC2D25
:10000800FF00030E8301CE000A08CD008A017008A4
:10001800A4007108A3007208A2007308A1000B1DB8
:100028002F280B11643081003F08F0004008F100D0
:100038004108F2004208F300F00A0319F10A031913
:10004800F20A0319F30A7008BF007108C0007208A9
:10005800C1007308C2002408F0002308F100220838
:10006800F2002108F3004D088A004E0E8300FF0EAF
:040078007F0E0900EE
:10007C00E83083120313F0000330F100F201F301B6
:02008C0008006A
:10008E00831203132230FC00F801F901FA01FB017F
:10009E00FC0303197D280310FB0CFA0CF90CF80C69
:1000AE00F30CF20CF10CF00C031C4F28FC0303199B
:1000BE006F287408F80775080318750FF907760886
:1000CE000318760FFA0777080318770FFB075328E4
:1000DE007408F80775080318750FF90776080318E2
:0E00EE00760FFA0777080318770FFB07080054
:0E00FC00293083120313FD00FD0B822808003B
:10010A0083120313F801F9011030FC00710DF80D88
:10011A00F90D7408F8027508031C750FF902031823
:10012A009D287408F80775080318750FF907031056
:0A013A00F00DF10DFC0B8B280800FE
:1001440083120313DD03DD035D08003C0318AF28AD
:10015400DD03000000000000A628000000000000ED
:060164000000000008008D
:10016A0083120313FB01FA01F901F801A001730DCF
:10017A00F80D7408F8027508031C750FF902760861
:10018A00031C760FFA027708031C770FFB020001A3
:10019A00031C0130A002F30D0730FC00730DF80DAB
:1001AA00F90DFA0DFB0DA00D7408731CEE28F80268
:1001BA007508031C750FF9027608031C760FFA02FC
:1001CA007708031C770FFB020001031C0130A00211
:1001DA00FF28F80775080318750FF907760803183A
:1001EA00760FFA0777080318770FFB070001031841
:1001FA000130A007F30DFC0BD328720DF80DF90D91
:10020A00FA0DFB0DA00D7408731C1D29F802750860
:10021A00031C750FF9027608031C760FFA02770899
:10022A00031C770FFB020001031C0130A0022E29D8
:10023A00F80775080318750FF90776080318760F7B
:10024A00FA0777080318770FFB0700010318013034
:10025A00A007F20D0730FC00720DF80DF90DFA0D2A
:10026A00FB0DA00D7408721C4C29F8027508031CBA
:10027A00750FF9027608031C760FFA027708031C39
:10028A00770FFB020001031C0130A0025D29F80769
:10029A0075080318750FF90776080318760FFA0719
:1002AA0077080318770FFB07000103180130A0072E
:1002BA00F20DFC0B3129710DF80DF90DFA0DFB0D3C
:1002CA00A00D7408721C7B29F8027508031C750FAF
:1002DA00F9027608031C760FFA027708031C770FD7
:1002EA00FB020001031C0130A0028C29F8077508E3
:1002FA000318750FF90776080318760FFA077708B7
:10030A000318770FFB07000103180130A007F10D4E
:10031A000730FC00710DF80DF90DFA0DFB0DA00D5B
:10032A007408711CAA29F8027508031C750FF902D2
:10033A007608031C760FFA027708031C770FFB0274
:10034A000001031C0130A002BB29F8077508031835
:10035A00750FF90776080318760FFA077708031856
:10036A00770FFB07000103180130A007F10DFC0B02
:10037A008F29700DF80DF90DFA0DFB0DA00D7408FB
:10038A00711CD929F8027508031C750FF902760841
:10039A00031C760FFA027708031C770FFB02000191
:1003AA00031C0130A002EA29F80775080318750F23
:1003BA00F90776080318760FFA0777080318770FF4
:1003CA00FB07000103180130A007F00D0730FC00FD
:1003DA00700DF80DF90DFA0DFB0DA00D7408701CC7
:1003EA00082AF8027508031C750FF9027608031C1F
:1003FA00760FFA027708031C770FFB020001031C31
:10040A000130A002192AF80775080318750FF907B1
:10041A0076080318760FFA0777080318770FFB0791
:10042A00000103180130A007F00DFC0BED2970182C
:10043A002C2A7408F80775080318750FF907760847
:10044A000318760FFA0777080318770FFB070800D7
:0E045A008312031345088A004408820008003C
:0A04680083120313861486100800A7
:10047200083083120313F4000030F5007508003CC5
:10048200031D452A7408003C0318622A01307402D5
:10049200F2000030031C013E7502F3007208F00006
:1004A200F00D701070085107840000185A2A0610C7
:1004B2005B2A0614061506117208F4007308F5008B
:0404C2003F2A0800C5
:1004C6003E20E830F4000330F500F601F70147203E
:1004D6007008D9007108DA007208DB007308DC00C6
:1004E6005108F4005208F500F601F701B52070082E
:1004F600D9007108DA007208DB007308DC007008A6
:10050600F5007108F6007208F7007308F800F80C99
:10051600F70CF60CF50CF813F80CF70CF60CF50CBA
:10052600F8137508F0007608F1007708F2007808ED
:10053600F300F30CF20CF10CF00CF3137008D50079
:100546007108D6003E205308F4005408F500F60161
:10055600F70147205508F9005608FA00FB01FC018F
:100566000330F8007908F4007A08F5007B08F600F5
:100576007C08F70078080319C72AF40DF50DF60D67
:10058600F70D7410FF3EBE2AB5207008D900710819
:10059600DA007208DB007308DC000A30F400003071
:1005A600F5005508F0005608F10085207008D500C2
:1005B6007108D60000307102031DE32A0330700271
:1005C6000318E62A332B460884005C08003C031D0A
:1005D600F62A5B08003C031DF62A5A08003C031D58
:1005E600F62A5908003C0318312B4808800456089F
:1005F60003190D2BD701D80100305802031D052B16
:100606005608570203180D2BDD01A220D70A03193D
:10061600D80AFF2A5508DD00A2204708800556089B
:100626000319252BD701D80100305802031D1D2BB5
:10063600560857020318252BDD01A220D70A0319F5
:10064600D80A172B5508DD00A2200130D902031C59
:10065600DA02031CDB02031CDC02E82A47088005D9
:0206660008008A
:1006680083120313D6015208F1000130F00071081B
:100678000319422BF00D7010FF3E3C2B7008D5007B
:100688005108840070080005F10071080130031D4D
:100698000030F0005408F00603196A2B5308003C98
:1006A80003185A2B7E207E20D303522B5108840036
:1006B80055080005F10071080130031D0030F000F5
:1006C8005408F00603196A2BFF30D6005608F000CC
:0206D800080018
:1006DA00063083120313D1000630D2006430D300EF
:1006EA00D4013423700803197B2B4315431DAE2B09
:1006FA000630D1000630D2006430D3000130D40075
:10070A00342370080319AE2B4311B90A0319BA0A24
:10071A002630D1000530D2003230D3000030D40068
:10072A0063223A08003C031D9C2B3908103C03182D
:10073A00A22B1030B9000030BA0000303A02031D73
:10074A00A82B0C3039020318AE2B0C30B90000303C
:10075A00BA000630D1000730D2006430D300D40189
:10076A00342370080319BA2BC315C31DEE2B0630A8
:10077A00D1000730D2006430D3000130D4003423D2
:10078A0070080319EE2BC3112630D1000530D200B0
:10079A003230D3000030D40063220130B902031C86
:1007AA00BA033A08003C031DDC2B3908103C031835
:1007BA00E22B1030B9000030BA0000303A02031DB3
:1007CA00E82B0C3039020318EE2B0C30B90000303C
:1007DA00BA000630D1000430D2006430D300D4010C
:1007EA00342370080319FA2BC314C31C352C0630A2
:1007FA00D1000430D2006430D3000130D400342355
:10080A0070080319352CC310E830D1000330D20028
:10081A006430D3000030D400632232302507F1005F
:10082A0026080318013EF2007108A5007208A60006
:10083A007208023C031D232C7108263C0318292C3C
:10084A002630A5000230A60001302602031D2F2CF7
:10085A00C23025020318352CC230A5000130A6008B
:10086A000630D1000530D2006430D300D4013423DD
:10087A0070080319412C4314431C7D2C0630D10007
:10088A000530D2006430D3000130D400342370081C
:10089A0003197D2C4310E830D1000330D2006430B4
:1008AA00D3000030D400632232302502F100003038
:1008BA00031C013E2602F2007108A5007208A60078
:1008CA007208023C031D6B2C7108263C0318712C1C
:1008DA002630A5000230A60001302602031D772C1F
:1008EA00C230250203187D2CC230A5000130A600B3
:1008FA0037083804031D9A2C0730D1000630D2007D
:10090A006430D300D4013423700803199A2CE830D8
:10091A00D1000330D2006430D3000030D400632207
:10092A0008160130B7000030B80037083804031938
:10093A00B52C0730D1000730D2006430D300D4017F
:10094A00342370080319B52CF430D1000130D200D9
:10095A006430D3000030D40063220812B701B80112
:10096A00D12C0130B1000030B200B301B401B5019D
:10097A00B601E92CB101B2010130B3000030B40074
:10098A00B501B601E92CB101B201B301B4010130DC
:10099A00B5000030B600E92C2608013A031DD72C11
:1009AA00C23025060319B62C2608013A031DDF2C8E
:1009BA00F43025060319BF2C2608023A031DE72C3A
:1009CA00263025060319C82C2B2D0130A70000302C
:1009DA00A800A901AA01AB01AC01AD01AE01AF01AA
:1009EA00B001532DA701A8010130A9000030AA00C7
:1009FA00AB01AC01AD01AE01AF01B001532DA701AE
:100A0A00A801A901AA010130AB000030AC00AD0178
:100A1A00AE01AF01B001532DA701A801A901AA0196
:100A2A00AB01AC010130AD000030AE00AF01B00146
:100A3A00532DA701A801A901AA01AB01AC01AD017F
:100A4A00AE010130AF000030B000532D00303A063D
:100A5A00031D312D0C3039060319EA2C00303A06F1
:100A6A00031D392D0D3039060319F72C00303A06CB
:100A7A00031D412D0E3039060319042D00303A06A4
:100A8A00031D492D0F3039060319112D00303A067E
:100A9A00031D512D1030390603191E2D2730D100A0
:060AAA003922342208008D
:100AB000831203138815F430D1000130D200F430D2
:100AC000D3000130D4006322E830D1000330D200DB
:0C0AD000F430D3000130D4006322080091
:100ADC00831203134F08C6005008F1000130F000D8
:100AEC00710803197D2DF00D7010FF3E772D7008E5
:100AFC00C800F0097008C70080304F0784007008E8
:0A0B0C0080058413700880050800BE
:100B16008430831603138100643083128100A03071
:040B26008B00080038
:100B2A00831203133F08F0004008F1004108F20065
:060B3A004208F300080070
:100B40002D228A110A128000840AC40A0319C50AD8
:080B5000F003031DA02D0800B5
:100B5800C23083120313A5000130A6000130A7009C
:100B6800A801A901AA01AB01AC01AD01AE01AF0119
:100B7800B0010130B100B201B301B401B501B60151
:100B8800B701B8010C30B900BA010530BB00BC018F
:100B9800BD01BE01BF01C001C101C2018601F03023
:100BA8008316860083128701FF308316870083121D
:100BB8008801831688018B250830CF000230D000C9
:100BC8006E2558252130FC007630FD00FD0BEA2DFE
:100BD800FC0BEA2D0000081288112130FC00763049
:100BE800FD00FD0BF52DFC0BF52D0000952570087B
:100BF800C9007108CA007208CB007308CC00081637
:100C080088156D2388160814BD01BE013C083E02F4
:100C1800031D102E3B083D020318162EBD0A0319AA
:100C2800BE0A0A2EBD01BE013C083E02031D1E2E4F
:100C38003B083D020318242EBD0A0319BE0A182ECC
:100C4800BD01BE013C083E02031D2C2E3B083D029F
:100C58000318322EBD0A0319BE0A262EBD01BE0195
:100C68003C083E02031D3A2E3B083D020318402E65
:100C7800BD0A0319BE0A342EBD01BE013C083E025E
:100C8800031D482E3B083D0203184E2EBD0A0319CA
:100C9800BE0A422EBD01BE013C083E02031D562E6F
:100CA8003B083D0203185C2EBD0A0319BE0A502EEC
:100CB800BD01BE013C083E02031D642E3B083D02F7
:100CC80003186A2EBD0A0319BE0A5E2EBD01BE01B5
:100CD8003C083E02031D722E3B083D020318782E85
:100CE800BD0A0319BE0A6C2EBD01BE013C083E02B6
:100CF800031D802E3B083D020318862EBD0A0319EA
:100D0800BE0A7A2EBD01BE013C083E02031D8E2E8E
:100D18003B083D020318942EBD0A0319BE0A882E0B
:100D2800BD01BE013C083E02031D9C2E3B083D024E
:100D38000318A22EBD0A0319BE0A962EBD01BE01D4
:100D48003C083E02031DAA2E3B083D020318B02EA4
:100D5800BD0A0319BE0AA42EBD01BE013C083E020D
:100D6800031DB82E3B083D020318BE2EBD0A031909
:100D7800BE0AB22EBD01BE013C083E02031DC62EAE
:100D88003B083D020318CC2EBD0A0319BE0AC02E2B
:100D9800BD01BE013C083E02031DD42E3B083D02A6
:100DA8000318DA2EBD0A0319BE0ACE2EBD01BE01F4
:100DB8003C083E02031DE22E3B083D020318E82EC4
:100DC800BD0A0319BE0ADC2EBD01BE013C083E0265
:100DD800031DF02E3B083D020318F62EBD0A031929
:100DE800BE0AEA2EBD01BE013C083E02031DFE2ECE
:100DF8003B083D020318042FBD0A0319BE0AF82E4A
:100E0800BD01BE013C083E02031D0C2F3B083D02FC
:100E18000318122FBD0A0319BE0A062F88120810DC
:100E280095257008F4007108F5007208F60073083B
:100E3800F7004908F4024A08031C4A0FF5024B0858
:100E4800031C4B0FF6024C08031C4C0FF7027708E3
:100E5800003C031D392F7608003C031D392F750807
:100E6800003C031D392F7408643C0318462F88156D
:100E7800081295257008C9007108CA007208CB00CD
:100E88007308CC0095257008F4007108F500720805
:100E9800F6007308F7004908F4024A08031C4A0FD1
:100EA800F5024B08031C4B0FF6024C08031C4C0FB1
:100EB800F7027708003C031D6B2F7608003C031DE2
:100EC8006B2F7508003C031D6B2F7408643C031CD2
:100ED800782F8811081695257008C9007108CA006E
:0C0EE8007208CB007308CC00032E792F99
:02400E004A2F37
:00000001FF
