:02000000B92D18
:10000800FF00030E8301CD000A08CE008A017008A4
:10001800A4007108A3007208A2007308A1000B1DB8
:100028002F280B11643081003B08F0003C08F100D8
:100038003D08F2003E08F300F00A0319F10A03191B
:10004800F20A0319F30A7008BB007108BC007208B1
:10005800BD007308BE002408F0002308F100220840
:10006800F2002108F3004E088A004D0E8300FF0EAF
:040078007F0E0900EE
:10007C00203083120313F0004E30F100F201F30133
:02008C0008006A
:10008E00831203132230FC00F801F901FA01FB017F
:10009E00FC0303197D280310FB0CFA0CF90CF80C69
:1000AE00F30CF20CF10CF00C031C4F28FC0303199B
:1000BE006F287408F80775080318750FF907760886
:1000CE000318760FFA0777080318770FFB075328E4
:1000DE007408F80775080318750FF90776080318E2
:0E00EE00760FFA0777080318770FFB07080054
:1000FC00043083120313FC003A30FD00FD0B8428FE
:08010C00FC0B84280000080030
:1001140083120313F801F9011030FC00710DF80D7E
:10012400F90D7408F8027508031C750FF902031819
:10013400A2287408F80775080318750FF907031047
:0A014400F00DF10DFC0B90280800EF
:10014E0083120313DD03DD035D08003C0318B4289E
:10015E00DD03000000000000AB28000000000000DE
:06016E0000000000080083
:1001740083120313FB01FA01F901F801A001730DC5
:10018400F80D7408F8027508031C750FF902760857
:10019400031C760FFA027708031C770FFB02000199
:1001A400031C0130A002F30D0730FC00730DF80DA1
:1001B400F90DFA0DFB0DA00D7408731CF328F80259
:1001C4007508031C750FF9027608031C760FFA02F2
:1001D4007708031C770FFB020001031C0130A00207
:1001E4000429F80775080318750FF907760803182A
:1001F400760FFA0777080318770FFB070001031837
:100204000130A007F30DFC0BD828720DF80DF90D81
:10021400FA0DFB0DA00D7408731C2229F802750851
:10022400031C750FF9027608031C760FFA0277088F
:10023400031C770FFB020001031C0130A0023329C9
:10024400F80775080318750FF90776080318760F71
:10025400FA0777080318770FFB070001031801302A
:10026400A007F20D0730FC00720DF80DF90DFA0D20
:10027400FB0DA00D7408721C5129F8027508031CAB
:10028400750FF9027608031C760FFA027708031C2F
:10029400770FFB020001031C0130A0026229F8075A
:1002A40075080318750FF90776080318760FFA070F
:1002B40077080318770FFB07000103180130A00724
:1002C400F20DFC0B3629710DF80DF90DFA0DFB0D2D
:1002D400A00D7408721C8029F8027508031C750FA0
:1002E400F9027608031C760FFA027708031C770FCD
:1002F400FB020001031C0130A0029129F8077508D4
:100304000318750FF90776080318760FFA077708AC
:100314000318770FFB07000103180130A007F10D44
:100324000730FC00710DF80DF90DFA0DFB0DA00D51
:100334007408711CAF29F8027508031C750FF902C3
:100344007608031C760FFA027708031C770FFB026A
:100354000001031C0130A002C029F8077508031826
:10036400750FF90776080318760FFA07770803184C
:10037400770FFB07000103180130A007F10DFC0BF8
:100384009429700DF80DF90DFA0DFB0DA00D7408EC
:10039400711CDE29F8027508031C750FF902760832
:1003A400031C760FFA027708031C770FFB02000187
:1003B400031C0130A002EF29F80775080318750F14
:1003C400F90776080318760FFA0777080318770FEA
:1003D400FB07000103180130A007F00D0730FC00F3
:1003E400700DF80DF90DFA0DFB0DA00D7408701CBD
:1003F4000D2AF8027508031C750FF9027608031C10
:10040400760FFA027708031C770FFB020001031C26
:100414000130A0021E2AF80775080318750FF907A2
:1004240076080318760FFA0777080318770FFB0787
:10043400000103180130A007F00DFC0BF22970181D
:10044400312A7408F80775080318750FF907760838
:100454000318760FFA0777080318770FFB070800CD
:0E0464008312031345088A0044088200080032
:100472008312031386140000000000000000000035
:0404820086100800D8
:10048600083083120313F4000030F5007508003CB1
:10049600031D4F2A7408003C0318712A01307402A8
:1004A600F2000030031C013E7502F3007208F000F2
:1004B600F00D70107008510784000018642A0610A9
:1004C600652A061406150000000000000000000062
:0E04D60006110130F402031CF503492A080048
:1004E4003E20E830F4000330F500F601F701472020
:1004F4007008D9007108DA007208DB007308DC00A8
:100504005108F4005208F500F601F701BA2070080A
:10051400D9007108DA007208DB007308DC00700887
:10052400F5007108F6007208F7007308F800F80C7B
:10053400F70CF60CF50CF813F80CF70CF60CF50C9C
:10054400F8137508F0007608F1007708F2007808CF
:10055400F300F30CF20CF10CF00CF3137008D5005B
:100564007108D6003E205308F4005408F500F60143
:10057400F70147205508F9005608FA00FB01FC0171
:100584000330F8007908F4007A08F5007B08F600D7
:100594007C08F70078080319D62AF40DF50DF60D3A
:1005A400F70D7410FF3ECD2ABA207008D9007108E7
:1005B400DA007208DB007308DC000A30F400003053
:1005C400F5005508F0005608F1008A207008D5009F
:1005D4007108D60000307102031DF22A0330700244
:1005E4000318F52A422B460884005C08003C031DCE
:1005F400052B5B08003C031D052B5A08003C031D1A
:10060400052B5908003C0318402B48088004560861
:1006140003191C2BD701D80100305802031D142BD9
:100624005608570203181C2BDD01A720D70A03190B
:10063400D80A0E2B5508DD00A72047088005560868
:100644000319342BD701D80100305802031D2C2B79
:10065400560857020318342BDD01A720D70A0319C3
:10066400D80A262B5508DD00A7200130D902031C27
:10067400DA02031CDB02031CDC02F72A47088005AC
:0206840008006C
:1006860083120313D6015208F1000130F0007108FD
:100696000319512BF00D7010FF3E4B2B7008D5003F
:1006A6005108840070080005F10071080130031D2F
:1006B6000030F0005408F0060319792B5308003C6B
:1006C6000318692B7E207E20D303612B51088400FA
:1006D60055080005F10071080130031D0030F000D7
:1006E6005408F0060319792BFF30D6005608F0009F
:0206F6000800FA
:1006F800063083120313D1000630D2006430D300D1
:10070800D4014323700803198A2B4315431DBD2BBD
:100718000630D1000630D2006430D3000130D40056
:10072800432370080319BD2B4311B90A0319BA0AE8
:100738002630D1000530D2003230D3000030D4004A
:1007480072223A08003C031DAB2B3908103C0318F1
:10075800B12B1030B9000030BA0000303A02031D46
:10076800B72B0C3039020318BD2B0C30B900003000
:10077800BA000630D1000730D2006430D300D4016B
:10078800432370080319C92BC315C31DFD2B06305D
:10079800D1000730D2006430D3000130D4004323A5
:1007A80070080319FD2BC3112630D1000530D20083
:1007B8003230D3000030D40072220130B902031C59
:1007C800BA033A08003C031DEB2B3908103C031808
:1007D800F12B1030B9000030BA0000303A02031D86
:1007E800F72B0C3039020318FD2B0C30B900003000
:1007F800BA000630D1000430D2006430D300D401EE
:10080800432370080319092CC314C31C442C063055
:10081800D1000430D2006430D3000130D400432327
:1008280070080319442CC310E830D1000330D200FB
:100838006430D3000030D400722232302507F10032
:1008480026080318013EF2007108A5007208A600E8
:100858007208023C031D322C7108263C0318382C00
:100868002630A5000230A60001302602031D3E2CCA
:10087800C23025020318442CC230A5000130A6005E
:100888000630D1000530D2006430D300D4014323B0
:1008980070080319502C4314431C8C2C0630D100CB
:1008A8000530D2006430D3000130D40043237008EF
:1008B80003198C2C4310E830D1000330D200643087
:1008C800D3000030D400722232302502F10000300B
:1008D800031C013E2602F2007108A5007208A6005A
:1008E8007208023C031D7A2C7108263C0318802CE0
:1008F8002630A5000230A60001302602031D862CF2
:10090800C230250203188C2CC230A5000130A60085
:1009180037083804031DA82C0730D1000630D20050
:100928006430D300D401432370080319A82CE8309D
:10093800D1000330D2006430D3000030D4007222DA
:100948000130B7000030B800370838040319C22C4A
:100958000730D1000730D2006430D300D4014323DC
:1009680070080319C22CF430D1000130D200643071
:10097800D3000030D4007222B701B801DE2C013058
:10098800B1000030B200B301B401B501B601F62CD4
:10099800B101B2010130B3000030B400B501B601B5
:1009A800F62CB101B201B301B4010130B500003039
:1009B800B600F62C2608013A031DE42CC2302506A1
:1009C8000319C32C2608013A031DEC2CF430250624
:1009D8000319CC2C2608023A031DF42C26302506D0
:1009E8000319D52C382D0130A7000030A800A90123
:1009F800AA01AB01AC01AD01AE01AF01B001602DA0
:100A0800A701A8010130A9000030AA00AB01AC0180
:100A1800AD01AE01AF01B001602DA701A801A90188
:100A2800AA010130AB000030AC00AD01AE01AF014E
:100A3800B001602DA701A801A901AA01AB01AC0171
:100A48000130AD000030AE00AF01B001602DA7014C
:100A5800A801A901AA01AB01AC01AD01AE010130A9
:100A6800AF000030B000602D00303A06031D3E2D67
:100A78000C3039060319F72C00303A06031D462DB1
:100A88000D3039060319042D00303A06031D4E2D8A
:100A98000E3039060319112D00303A06031D562D64
:100AA8000F30390603191E2D00303A06031D5E2D3E
:100AB8001030390603192B2D2730D1004322392253
:020AC800080024
:100ACA00831203138815F430D1000130D200F430B8
:100ADA00D3000130D4007222E830D1000330D200B2
:0C0AEA00F430D3000130D4007222080068
:100AF600831203134F08C6005008F1000130F000BE
:100B0600710803198A2DF00D7010FF3E842D7008B0
:100B1600C800F0097008C70080304F0784007008CD
:0A0B260080058413700880050800A4
:100B30008430831603138100643083128100A03057
:040B40008B0008001E
:100B4400831203133B08F0003C08F1003D08F20057
:060B54003E08F30008005A
:100B5A0032228A110A128000840AC40A0319C50AB9
:080B6A00F003031DAD2D08008E
:100B7200C23083120313A5000130A6000130A70082
:100B8200A801A901AA01AB01AC01AD01AE01AF01FF
:100B9200B0010130B100B201B301B401B501B60137
:100BA200B701B8010C30B900BA01BB01BC01BD01EB
:100BB200BE010A30BF00C001C101C2018601F0308E
:100BC2008316860083128701FF3083168700831203
:100BD20088018316880198250830CF000230D000A2
:100BE2007B2565250330FB008A30FC005530FD0073
:100BF200FD0BF92DFC0BF92DFB0BF92D000000006C
:100C0200081288110330FB008A30FC005530FD00C9
:100C1200FD0B092EFC0B092EFB0B092E0000000018
:100C2200A2257008C9007108CA007208CB007308B7
:100C3200CC007C2388160814C101C201400842027C
:100C4200031D252E3F08410203182B2EC10A03194A
:100C5200C20A1F2EC101C20140084202031D332EE7
:100C62003F0841020318392EC10A0319C20A2D2E68
:100C7200C101C20140084202031D412E3F08410248
:100C82000318472EC10A0319C20A3B2EC101C20131
:100C920040084202031D4F2E3F0841020318552E01
:100CA200C10A0319C20A492EC101C2014008420207
:100CB200031D5D2E3F0841020318632EC10A03196A
:100CC200C20A572EC101C20140084202031D6B2E07
:100CD2003F0841020318712EC10A0319C20A652E88
:100CE200C101C20140084202031D792E3F084102A0
:100CF20003187F2EC10A0319C20A732EC101C20151
:100D020040084202031D872E3F08410203188D2E20
:100D1200C10A0319C20A812EC101C201400842025E
:100D2200031D952E3F08410203189B2EC10A031989
:100D3200C20A8F2EC101C20140084202031DA32E26
:100D42003F0841020318A92EC10A0319C20A9D2EA7
:100D5200C101C20140084202031DB12E3F084102F7
:100D62000318B72EC10A0319C20AAB2EC101C20170
:100D720040084202031DBF2E3F0841020318C52E40
:100D8200C10A0319C20AB92EC101C20140084202B6
:100D9200031DCD2E3F0841020318D32EC10A0319A9
:100DA200C20AC72EC101C20140084202031DDB2E46
:100DB2003F0841020318E12EC10A0319C20AD52EC7
:100DC200C101C20140084202031DE92E3F0841024F
:100DD2000318EF2EC10A0319C20AE32EC101C20190
:100DE20040084202031DF72E3F0841020318FD2E60
:100DF200C10A0319C20AF12EC101C201400842020E
:100E0200031D052F3F08410203180B2FC10A0319C6
:100E1200C20AFF2EC101C20140084202031D132F64
:100E22003F0841020318192FC10A0319C20A0D2FE4
:100E3200C101C20140084202031D212F3F084102A5
:100E42000318272FC10A0319C20A1B2F8812081080
:100E5200A2257008F4007108F5007208F600730804
:100E6200F7004908F4024A08031C4A0FF5024B082E
:100E7200031C4B0FF6024C08031C4C0FF702003008
:100E82007702031D4E2F00307602031D4E2F0030D5
:100E92007502031D4E2F64307402031C5C2F8815EB
:100EA2000812A2257008C9007108CA007208CB0096
:100EB2007308CC00672F88110816A2257008C90094
:100EC2007108CA007208CB007308CC001A2E682F72
:02400E004A2F37
:00000001FF
